:020000040000FA
:10000000020481BC000BBE0029EF8DF084FFADF02F
:1000100022E4CCF875F008EF2FFFEE33FEEC33FC52
:10002000EE9DEC984005FCEE9DFE0FD5F0E9E4CE88
:10003000FD22EDF8F5F0EE8420D21CFEADF075F057
:1000400008EF2FFFED33FD4007985006D5F0F22260
:10005000C398FD0FD5F0EA22120579120531120579
:10006000697FED7E1712054DD2AF2212005880FE37
:100073000203D12091320509E50970020508E50B59
:10008300150B7002150AE50D150D7002150CE50F21
:10009300150F7002150EE511151170021510E513F9
:1000A3001513700C15128008E5091509700215085F
:1000B300209032E509150970021508050BE50B7050
:1000C30002050AE50D150D7002150CE50F150F70ED
:1000D30002150EE511151170021510E513151370B5
:1000E3000C15128008E50B150B7002150A208732D8
:1000F300E509150970021508E50B150B7002150AC1
:10010300050DE50D7002050CE50F150F7002150EB8
:10011300E511151170021510E5131513700C151266
:100123008008E50D150D7002150C208632E50915C2
:100133000970021508E50B150B7002150AE50D157C
:100143000D7002150C050FE50F7002050EE5111574
:100153001170021510E5131513700C15128008E5C4
:100163000F150F7002150E208532E509150970026F
:100173001508E50B150B7002150AE50D150D700238
:10018300150CE50F150F7002150E0511E511700220
:100193000510E5131513700C15128008E5111511E0
:1001A30070021510208432E509150970021508E55F
:1001B3000B150B7002150AE50D150D7002150CE5F4
:1001C3000F150F7002150EE51115117002151005AC
:1001D30013E513700C05128008E51315137002154F
:1001E30012C3E508648094805005E4F508F509D34B
:1001F300E509940AE5086480948040067508007553
:10020300090AC3E50A648094805005E4F50AF50BF6
:10021300D3E50B940AE50A648094804006750A00CE
:10022300750B0AC3E50C648094805005E4F50CF566
:100233000DD3E50D940AE50C648094804006750C9B
:1002430000750D0AC3E50E648094805005E4F50E35
:10025300F50FD3E50F940AE50E648094804006758C
:100263000E00750F0AC3E510648094805005E4F511
:1002730010F511D3E511940AE510648094804006CB
:1002830075100075110AC3E512648094805005E46B
:10029300F512F513D3E513940AE5126480948040B4
:1002A3000675120075130AE509640A45087005F519
:1002B30014751501E50B640A450A7005F5147515E7
:1002C30002E50D640A450C7005F514751503E50F79
:1002D300640A450E7005F514751504E511640A45A5
:1002E300107005F514751505E513640A45127005BC
:1002F300F514751506AE14AF15220517E517700230
:10030300051624FFFFE51634FFFEC3EF9432EE9487
:100313000050030203C4E51724CDFFE51634FFFEA6
:100323007C017DF4120003C3ED9432EC940050027F
:10033300807CC3ED9464EC94005002805EC3ED9422
:1003430096EC940050028040C3ED94C8EC940050A6
:1003530002801FC3ED94FAEC9400500DC297C2962D
:10036300C295C294C293D29222C3ED942CEC940111
:10037300500DC297C296C295C294D293C29222C321
:10038300ED945EEC9401500AC297C296C295D29442
:100393008037C3ED9490EC9401500AC297C296D271
:1003A30095C2948024C3ED94C2EC9401500AC29781
:1003B300D296C295C2948011C3ED94F4EC9401508B
:1003C3000CD297C296C295C294C293C29222C0E045
:1003D300C0F0C0D075D01853917FC3E5179402E5E0
:1003E30016940850061202FD02047A120076EE708B
:1003F30075EF24FE605C14604514602E14601714BE
:100403007064C297C296C295C294C293D2927597F2
:100413003F7596FC8061C297C296C295C294D293EF
:10042300C292759733759630804DC297C296C29526
:10043300D294C293C2927597267596648039C297F7
:10044300C296D295C294C293C29275971975969823
:100453008025C297D296C295C294C293C2927597D1
:100463000C7596CC8011D297C296C295C294C29352
:10047300C292E4F597F596D0D0D0F0D0E0321205D1
:1004830075787FE4F6D8FD75811F0204CB02006BFB
:10049300E493A3F8E493A34003F68001F208DFF4A6
:1004A3008029E493A3F85407240CC8C333C4540F1E
:1004B3004420C8834004F456800146F6DFE4800BF1
:1004C3000102040810204080900510E47E0193602F
:1004D300BCA3FF543F30E509541FFEE493A360011E
:1004E3000ECF54C025E060A840B8E493A3FAE49388
:1004F300A3F8E493A3C8C582C8CAC583CAF0A3C836
:10050300C582C8CAC583CADFE9DEE780BE0216001A
:100513000002080000020A0000020C0000020E00A4
:10052300000210000002120000021400010075F125
:10053300FC75A5FC75D4FF75D50375E240C297C25F
:1005430096C295C294C293C29222E4F591438E401F
:10055300C39FFFE49EF5938F9274FFF595F5944343
:10056300E6807591042275D10375B9F0E4F597F52A
:0A057300962253D9BF2243E303226E
:00000001FF
